{
  "_format": "hh-sol-artifact-1",
  "contractName": "VotingSystem",
  "sourceName": "contracts/VotingSystem.sol",
  "abi": [
    {
      "inputs": [
        {
          "internalType": "uint32",
          "name": "_levels",
          "type": "uint32"
        },
        {
          "internalType": "contract IHasher",
          "name": "_hasher",
          "type": "address"
        },
        {
          "internalType": "contract IVerifier",
          "name": "_verifier",
          "type": "address"
        },
        {
          "internalType": "uint256",
          "name": "_numOptions",
          "type": "uint256"
        },
        {
          "internalType": "uint256",
          "name": "endsAfter",
          "type": "uint256"
        }
      ],
      "stateMutability": "nonpayable",
      "type": "constructor"
    },
    {
      "anonymous": false,
      "inputs": [
        {
          "indexed": true,
          "internalType": "bytes32",
          "name": "commitment",
          "type": "bytes32"
        },
        {
          "indexed": false,
          "internalType": "uint32",
          "name": "leafIndex",
          "type": "uint32"
        },
        {
          "indexed": false,
          "internalType": "uint256",
          "name": "timestamp",
          "type": "uint256"
        }
      ],
      "name": "Commit",
      "type": "event"
    },
    {
      "anonymous": false,
      "inputs": [
        {
          "indexed": false,
          "internalType": "uint256",
          "name": "uniqueHashes",
          "type": "uint256"
        }
      ],
      "name": "RegisterCommitment",
      "type": "event"
    },
    {
      "anonymous": false,
      "inputs": [
        {
          "indexed": true,
          "internalType": "address",
          "name": "validator",
          "type": "address"
        }
      ],
      "name": "RegisterValidator",
      "type": "event"
    },
    {
      "anonymous": false,
      "inputs": [
        {
          "indexed": false,
          "internalType": "uint256",
          "name": "option",
          "type": "uint256"
        },
        {
          "indexed": false,
          "internalType": "bytes32",
          "name": "nullifierHash",
          "type": "bytes32"
        }
      ],
      "name": "Vote",
      "type": "event"
    },
    {
      "inputs": [],
      "name": "FIELD_SIZE",
      "outputs": [
        {
          "internalType": "uint256",
          "name": "",
          "type": "uint256"
        }
      ],
      "stateMutability": "view",
      "type": "function"
    },
    {
      "inputs": [],
      "name": "ROOT_HISTORY_SIZE",
      "outputs": [
        {
          "internalType": "uint32",
          "name": "",
          "type": "uint32"
        }
      ],
      "stateMutability": "view",
      "type": "function"
    },
    {
      "inputs": [],
      "name": "ZERO_VALUE",
      "outputs": [
        {
          "internalType": "uint256",
          "name": "",
          "type": "uint256"
        }
      ],
      "stateMutability": "view",
      "type": "function"
    },
    {
      "inputs": [
        {
          "internalType": "bytes32",
          "name": "",
          "type": "bytes32"
        }
      ],
      "name": "commitments",
      "outputs": [
        {
          "internalType": "bool",
          "name": "",
          "type": "bool"
        }
      ],
      "stateMutability": "view",
      "type": "function"
    },
    {
      "inputs": [],
      "name": "currentRootIndex",
      "outputs": [
        {
          "internalType": "uint32",
          "name": "",
          "type": "uint32"
        }
      ],
      "stateMutability": "view",
      "type": "function"
    },
    {
      "inputs": [
        {
          "internalType": "uint256",
          "name": "",
          "type": "uint256"
        }
      ],
      "name": "filledSubtrees",
      "outputs": [
        {
          "internalType": "bytes32",
          "name": "",
          "type": "bytes32"
        }
      ],
      "stateMutability": "view",
      "type": "function"
    },
    {
      "inputs": [],
      "name": "getExpiry",
      "outputs": [
        {
          "internalType": "uint256",
          "name": "",
          "type": "uint256"
        }
      ],
      "stateMutability": "view",
      "type": "function"
    },
    {
      "inputs": [],
      "name": "getLastRoot",
      "outputs": [
        {
          "internalType": "bytes32",
          "name": "",
          "type": "bytes32"
        }
      ],
      "stateMutability": "view",
      "type": "function"
    },
    {
      "inputs": [
        {
          "internalType": "uint256",
          "name": "_option",
          "type": "uint256"
        }
      ],
      "name": "getOptionCounter",
      "outputs": [
        {
          "internalType": "uint256",
          "name": "",
          "type": "uint256"
        }
      ],
      "stateMutability": "view",
      "type": "function"
    },
    {
      "inputs": [
        {
          "internalType": "uint256",
          "name": "_left",
          "type": "uint256"
        },
        {
          "internalType": "uint256",
          "name": "_right",
          "type": "uint256"
        }
      ],
      "name": "hashLeftRight",
      "outputs": [
        {
          "internalType": "bytes32",
          "name": "",
          "type": "bytes32"
        }
      ],
      "stateMutability": "view",
      "type": "function"
    },
    {
      "inputs": [],
      "name": "hasher",
      "outputs": [
        {
          "internalType": "contract IHasher",
          "name": "",
          "type": "address"
        }
      ],
      "stateMutability": "view",
      "type": "function"
    },
    {
      "inputs": [
        {
          "internalType": "bytes32",
          "name": "_root",
          "type": "bytes32"
        }
      ],
      "name": "isKnownRoot",
      "outputs": [
        {
          "internalType": "bool",
          "name": "",
          "type": "bool"
        }
      ],
      "stateMutability": "view",
      "type": "function"
    },
    {
      "inputs": [],
      "name": "levels",
      "outputs": [
        {
          "internalType": "uint32",
          "name": "",
          "type": "uint32"
        }
      ],
      "stateMutability": "view",
      "type": "function"
    },
    {
      "inputs": [],
      "name": "nextIndex",
      "outputs": [
        {
          "internalType": "uint32",
          "name": "",
          "type": "uint32"
        }
      ],
      "stateMutability": "view",
      "type": "function"
    },
    {
      "inputs": [
        {
          "internalType": "bytes32",
          "name": "",
          "type": "bytes32"
        }
      ],
      "name": "nullifiers",
      "outputs": [
        {
          "internalType": "bool",
          "name": "",
          "type": "bool"
        }
      ],
      "stateMutability": "view",
      "type": "function"
    },
    {
      "inputs": [],
      "name": "owner",
      "outputs": [
        {
          "internalType": "address",
          "name": "",
          "type": "address"
        }
      ],
      "stateMutability": "view",
      "type": "function"
    },
    {
      "inputs": [
        {
          "internalType": "uint256",
          "name": "_uniqueHash",
          "type": "uint256"
        },
        {
          "internalType": "uint256",
          "name": "_commitment",
          "type": "uint256"
        }
      ],
      "name": "registerCommitment",
      "outputs": [],
      "stateMutability": "nonpayable",
      "type": "function"
    },
    {
      "inputs": [
        {
          "internalType": "address",
          "name": "_validator",
          "type": "address"
        }
      ],
      "name": "registerValidator",
      "outputs": [],
      "stateMutability": "nonpayable",
      "type": "function"
    },
    {
      "inputs": [
        {
          "internalType": "uint256",
          "name": "",
          "type": "uint256"
        }
      ],
      "name": "roots",
      "outputs": [
        {
          "internalType": "bytes32",
          "name": "",
          "type": "bytes32"
        }
      ],
      "stateMutability": "view",
      "type": "function"
    },
    {
      "inputs": [
        {
          "internalType": "address",
          "name": "",
          "type": "address"
        }
      ],
      "name": "validators",
      "outputs": [
        {
          "internalType": "bool",
          "name": "",
          "type": "bool"
        }
      ],
      "stateMutability": "view",
      "type": "function"
    },
    {
      "inputs": [],
      "name": "verifier",
      "outputs": [
        {
          "internalType": "contract IVerifier",
          "name": "",
          "type": "address"
        }
      ],
      "stateMutability": "view",
      "type": "function"
    },
    {
      "inputs": [
        {
          "internalType": "uint256",
          "name": "_option",
          "type": "uint256"
        },
        {
          "internalType": "uint256",
          "name": "_nullifier",
          "type": "uint256"
        },
        {
          "internalType": "uint256",
          "name": "_root",
          "type": "uint256"
        },
        {
          "internalType": "uint256[2]",
          "name": "_proof_a",
          "type": "uint256[2]"
        },
        {
          "internalType": "uint256[2][2]",
          "name": "_proof_b",
          "type": "uint256[2][2]"
        },
        {
          "internalType": "uint256[2]",
          "name": "_proof_c",
          "type": "uint256[2]"
        }
      ],
      "name": "vote",
      "outputs": [],
      "stateMutability": "nonpayable",
      "type": "function"
    },
    {
      "inputs": [
        {
          "internalType": "uint256",
          "name": "i",
          "type": "uint256"
        }
      ],
      "name": "zeros",
      "outputs": [
        {
          "internalType": "bytes32",
          "name": "",
          "type": "bytes32"
        }
      ],
      "stateMutability": "pure",
      "type": "function"
    }
  ],
  "bytecode": "0x60c06040526000600360006101000a81548163ffffffff021916908363ffffffff1602179055506000600360046101000a81548163ffffffff021916908363ffffffff1602179055503480156200005557600080fd5b5060405162003af038038062003af083398181016040528101906200007b919062000b18565b848484828260008263ffffffff1611620000cc576040517f08c379a0000000000000000000000000000000000000000000000000000000008152600401620000c39062000c27565b60405180910390fd5b60208263ffffffff161062000118576040517f08c379a00000000000000000000000000000000000000000000000000000000081526004016200010f9062000c99565b60405180910390fd5b816000806101000a81548163ffffffff021916908363ffffffff1602179055508073ffffffffffffffffffffffffffffffffffffffff1660808173ffffffffffffffffffffffffffffffffffffffff168152505060005b8263ffffffff168163ffffffff161015620001ce576200019b8163ffffffff16620002f860201b60201c565b600160008363ffffffff168152602001908152602001600020819055508080620001c59062000cea565b9150506200016f565b50620001f4600183620001e2919062000d1b565b63ffffffff16620002f860201b60201c565b600260008081526020019081526020016000208190555050508073ffffffffffffffffffffffffffffffffffffffff1660a08173ffffffffffffffffffffffffffffffffffffffff168152505050505033600660006101000a81548173ffffffffffffffffffffffffffffffffffffffff021916908373ffffffffffffffffffffffffffffffffffffffff1602179055508160078190555062015180816200029d919062000d5a565b42620002aa919062000da5565b60088190555060005b6007548111620002ec576000600b6000838152602001908152602001600020819055508080620002e39062000de0565b915050620002b3565b50505050505062000e9f565b60008082036200032e577f2fe54c60d3acabf3343a35b6eba15db4821b340f76e741e2249685ed4899af6c60001b9050620009d4565b6001820362000363577f256a6135777eee2fd26f54b8b7037a25439d5235caee224154186d2b8a52e31d60001b9050620009d4565b6002820362000398577f1151949895e82ab19924de92c40a3d6f7bcb60d92b00504b8199613683f0c20060001b9050620009d4565b60038203620003cd577f20121ee811489ff8d61f09fb89e313f14959a0f28bb428a20dba6b0b068b3bdb60001b9050620009d4565b6004820362000402577f0a89ca6ffa14cc462cfedb842c30ed221a50a3d6bf022a6a57dc82ab24c157c960001b9050620009d4565b6005820362000437577f24ca05c2b5cd42e890d6be94c68d0689f4f21c9cec9c0f13fe41d566dfb5495960001b9050620009d4565b600682036200046c577f1ccb97c932565a92c60156bdba2d08f3bf1377464e025cee765679e604a7315c60001b9050620009d4565b60078203620004a1577f19156fbd7d1a8bf5cba8909367de1b624534ebab4f0f79e003bccdd1b182bdb460001b9050620009d4565b60088203620004d6577f261af8c1f0912e465744641409f622d466c3920ac6e5ff37e36604cb11dfff8060001b9050620009d4565b600982036200050a577e58459724ff6ca5a1652fcbc3e82b93895cf08e975b19beab3f54c217d1c00760001b9050620009d4565b600a82036200053f577f1f04ef20dee48d39984d8eabe768a70eafa6310ad20849d4573c3c40c2ad1e3060001b9050620009d4565b600b820362000574577f1bea3dec5dab51567ce7e200a30f7ba6d4276aeaa53e2686f962a46c66d511e560001b9050620009d4565b600c8203620005a9577f0ee0f941e2da4b9e31c3ca97a40d8fa9ce68d97c084177071b3cb46cd3372f0f60001b9050620009d4565b600d8203620005de577f1ca9503e8935884501bbaf20be14eb4c46b89772c97b96e3b2ebf3a36a948bbd60001b9050620009d4565b600e820362000613577f133a80e30697cd55d8f7d4b0965b7be24057ba5dc3da898ee2187232446cb10860001b9050620009d4565b600f820362000648577f13e6d8fc88839ed76e182c2a779af5b2c0da9dd18c90427a644f7e148a6253b660001b9050620009d4565b601082036200067d577f1eb16b057a477f4bc8f572ea6bee39561098f78f15bfb3699dcbb7bd8db6185460001b9050620009d4565b60118203620006b2577f0da2cb16a1ceaabf1c16b838f7a9e3f2a3a3088d9e0a6debaa748114620696ea60001b9050620009d4565b60128203620006e7577f24a3b3d822420b14b5d8cb6c28a574f01e98ea9e940551d2ebd75cee12649f9d60001b9050620009d4565b601382036200071c577f198622acbd783d1b0d9064105b1fc8e4d8889de95c4c519b3f635809fe6afc0560001b9050620009d4565b6014820362000751577f29d7ed391256ccc3ea596c86e933b89ff339d25ea8ddced975ae2fe30b5296d460001b9050620009d4565b6015820362000786577f19be59f2f0413ce78c0c3703a3a5451b1d7f39629fa33abd11548a76065b296760001b9050620009d4565b60168203620007bb577f1ff3f61797e538b70e619310d33f2a063e7eb59104e112e95738da1254dc345360001b9050620009d4565b60178203620007f0577f10c16ae9959cf8358980d9dd9616e48228737310a10e2b6b731c1a548f036c4860001b9050620009d4565b6018820362000825577f0ba433a63174a90ac20992e75e3095496812b652685b5e1a2eae0b1bf4e8fcd160001b9050620009d4565b601982036200085a577f019ddb9df2bc98d987d0dfeca9d2b643deafab8f7036562e627c3667266a044c60001b9050620009d4565b601a82036200088f577f2d3c88b23175c5a5565db928414c66d1912b11acf974b2e644caaac04739ce9960001b9050620009d4565b601b8203620008c4577f2eab55f6ae4e66e32c5189eed5c470840863445760f5ed7e7b69b2a62600f35460001b9050620009d4565b601c8203620008f8577e2df37a2642621802383cf952bf4dd1f32e05433beeb1fd41031fb7eace979d60001b9050620009d4565b601d82036200092d577f104aeb41435db66c3e62feccc1d6f5d98d0a0ed75d1374db457cf462e3a1f42760001b9050620009d4565b601e820362000962577f1f3c6fd858e9a7d4b0d1f38e256a09d81d5a5e3c963987e2d4b814cfab7c6ebb60001b9050620009d4565b601f820362000997577f2c7a07d20dff79d01fecedc1134284a8d08436606c93693b67e333f671bf69cc60001b9050620009d4565b6040517f08c379a0000000000000000000000000000000000000000000000000000000008152600401620009cb9062000e7d565b60405180910390fd5b919050565b600080fd5b600063ffffffff82169050919050565b620009f981620009de565b811462000a0557600080fd5b50565b60008151905062000a1981620009ee565b92915050565b600073ffffffffffffffffffffffffffffffffffffffff82169050919050565b600062000a4c8262000a1f565b9050919050565b600062000a608262000a3f565b9050919050565b62000a728162000a53565b811462000a7e57600080fd5b50565b60008151905062000a928162000a67565b92915050565b600062000aa58262000a3f565b9050919050565b62000ab78162000a98565b811462000ac357600080fd5b50565b60008151905062000ad78162000aac565b92915050565b6000819050919050565b62000af28162000add565b811462000afe57600080fd5b50565b60008151905062000b128162000ae7565b92915050565b600080600080600060a0868803121562000b375762000b36620009d9565b5b600062000b478882890162000a08565b955050602062000b5a8882890162000a81565b945050604062000b6d8882890162000ac6565b935050606062000b808882890162000b01565b925050608062000b938882890162000b01565b9150509295509295909350565b600082825260208201905092915050565b7f5f6c6576656c732073686f756c642062652067726561746572207468616e207a60008201527f65726f0000000000000000000000000000000000000000000000000000000000602082015250565b600062000c0f60238362000ba0565b915062000c1c8262000bb1565b604082019050919050565b6000602082019050818103600083015262000c428162000c00565b9050919050565b7f5f6c6576656c732073686f756c64206265206c657373207468616e2033320000600082015250565b600062000c81601e8362000ba0565b915062000c8e8262000c49565b602082019050919050565b6000602082019050818103600083015262000cb48162000c72565b9050919050565b7f4e487b7100000000000000000000000000000000000000000000000000000000600052601160045260246000fd5b600062000cf782620009de565b915063ffffffff820362000d105762000d0f62000cbb565b5b600182019050919050565b600062000d2882620009de565b915062000d3583620009de565b9250828203905063ffffffff81111562000d545762000d5362000cbb565b5b92915050565b600062000d678262000add565b915062000d748362000add565b925082820262000d848162000add565b9150828204841483151762000d9e5762000d9d62000cbb565b5b5092915050565b600062000db28262000add565b915062000dbf8362000add565b925082820190508082111562000dda5762000dd962000cbb565b5b92915050565b600062000ded8262000add565b91507fffffffffffffffffffffffffffffffffffffffffffffffffffffffffffffffff820362000e225762000e2162000cbb565b5b600182019050919050565b7f496e646578206f7574206f6620626f756e647300000000000000000000000000600082015250565b600062000e6560138362000ba0565b915062000e728262000e2d565b602082019050919050565b6000602082019050818103600083015262000e988162000e56565b9050919050565b60805160a051612c1662000eda6000396000818161062201526115dc01526000818161074b0152818161082501526113d40152612c166000f3fe608060405234801561001057600080fd5b506004361061014d5760003560e01c80639fca5169116100c3578063ec7329591161007c578063ec732959146103c8578063ed33639f146103e6578063f178e47c14610404578063f61c266b14610434578063fa52c7d814610452578063fc7e9c6f146104825761014d565b80639fca5169146102f4578063ba70f75714610310578063c2b40ae41461032e578063cd87a3b41461035e578063ce8f63771461037c578063e8295588146103985761014d565b80635bb93995116101155780635bb93995146101f85780636d9833e314610228578063839df945146102585780638da5cb5b1461028857806390eeb02b146102a6578063955e0377146102c45761014d565b80631407beb8146101525780632997e86b1461016e5780632b7ac3f31461019e578063414a37ba146101bc5780634ecf518b146101da575b600080fd5b61016c60048036038101906101679190611950565b6104a0565b005b610188600480360381019061018391906119c6565b610600565b6040516101959190611a0e565b60405180910390f35b6101a6610620565b6040516101b39190611aa8565b60405180910390f35b6101c4610644565b6040516101d19190611ad2565b60405180910390f35b6101e2610668565b6040516101ef9190611b0c565b60405180910390f35b610212600480360381019061020d9190611950565b61067c565b60405161021f9190611b36565b60405180910390f35b610242600480360381019061023d91906119c6565b6108d7565b60405161024f9190611a0e565b60405180910390f35b610272600480360381019061026d91906119c6565b610974565b60405161027f9190611a0e565b60405180910390f35b610290610994565b60405161029d9190611b72565b60405180910390f35b6102ae6109ba565b6040516102bb9190611b0c565b60405180910390f35b6102de60048036038101906102d99190611b8d565b6109d0565b6040516102eb9190611ad2565b60405180910390f35b61030e60048036038101906103099190611be6565b6109ed565b005b610318610ba8565b6040516103259190611b36565b60405180910390f35b61034860048036038101906103439190611b8d565b610bdb565b6040516103559190611b36565b60405180910390f35b610366610bf3565b6040516103739190611b0c565b60405180910390f35b61039660048036038101906103919190611e0b565b610bf8565b005b6103b260048036038101906103ad9190611b8d565b610d0f565b6040516103bf9190611b36565b60405180910390f35b6103d06113ae565b6040516103dd9190611ad2565b60405180910390f35b6103ee6113d2565b6040516103fb9190611ebb565b60405180910390f35b61041e60048036038101906104199190611b8d565b6113f6565b60405161042b9190611b36565b60405180910390f35b61043c61140e565b6040516104499190611ad2565b60405180910390f35b61046c60048036038101906104679190611be6565b611423565b6040516104799190611a0e565b60405180910390f35b61048a611443565b6040516104979190611b0c565b60405180910390f35b600960003373ffffffffffffffffffffffffffffffffffffffff1673ffffffffffffffffffffffffffffffffffffffff16815260200190815260200160002060009054906101000a900460ff1661052c576040517f08c379a000000000000000000000000000000000000000000000000000000000815260040161052390611f33565b60405180910390fd5b600a600083815260200190815260200160002060009054906101000a900460ff161561058d576040517f08c379a000000000000000000000000000000000000000000000000000000000815260040161058490611fc5565b60405180910390fd5b6105998160001b611459565b6001600a600084815260200190815260200160002060006101000a81548160ff0219169083151502179055507ff4478dd390c958f39adce5af1c9b050db246037e2263294a0b8d890495001831826040516105f49190611ad2565b60405180910390a15050565b60046020528060005260406000206000915054906101000a900460ff1681565b7f000000000000000000000000000000000000000000000000000000000000000081565b7f30644e72e131a029b85045b68181585d2833e84879b9709143e1f593f000000181565b60008054906101000a900463ffffffff1681565b60007f30644e72e131a029b85045b68181585d2833e84879b9709143e1f593f000000183106106e0576040517f08c379a00000000000000000000000000000000000000000000000000000000081526004016106d790612031565b60405180910390fd5b7f30644e72e131a029b85045b68181585d2833e84879b9709143e1f593f00000018210610742576040517f08c379a0000000000000000000000000000000000000000000000000000000008152600401610739906120c3565b60405180910390fd5b600083905060007f000000000000000000000000000000000000000000000000000000000000000073ffffffffffffffffffffffffffffffffffffffff16633f1a1187838360006040518463ffffffff1660e01b81526004016107a79392919061211e565b6040805180830381865afa1580156107c3573d6000803e3d6000fd5b505050506040513d601f19601f820116820180604052508101906107e7919061216a565b80925081935050507f30644e72e131a029b85045b68181585d2833e84879b9709143e1f593f00000018061081e5761081d6121aa565b5b84830891507f000000000000000000000000000000000000000000000000000000000000000073ffffffffffffffffffffffffffffffffffffffff16633f1a1187838360006040518463ffffffff1660e01b81526004016108819392919061211e565b6040805180830381865afa15801561089d573d6000803e3d6000fd5b505050506040513d601f19601f820116820180604052508101906108c1919061216a565b80925081935050508160001b9250505092915050565b60008060001b82036108ec576000905061096f565b6000600360009054906101000a900463ffffffff16905060008190505b600260008263ffffffff1681526020019081526020016000205484036109345760019250505061096f565b60008163ffffffff160361094757601e90505b808061095290612208565b9150508163ffffffff168163ffffffff1603610909576000925050505b919050565b60056020528060005260406000206000915054906101000a900460ff1681565b600660009054906101000a900473ffffffffffffffffffffffffffffffffffffffff1681565b600360009054906101000a900463ffffffff1681565b6000600b6000838152602001908152602001600020549050919050565b600660009054906101000a900473ffffffffffffffffffffffffffffffffffffffff1673ffffffffffffffffffffffffffffffffffffffff163373ffffffffffffffffffffffffffffffffffffffff1614610a7d576040517f08c379a0000000000000000000000000000000000000000000000000000000008152600401610a749061227d565b60405180910390fd5b600960008273ffffffffffffffffffffffffffffffffffffffff1673ffffffffffffffffffffffffffffffffffffffff16815260200190815260200160002060009054906101000a900460ff1615610b0a576040517f08c379a0000000000000000000000000000000000000000000000000000000008152600401610b01906122e9565b60405180910390fd5b6001600960008373ffffffffffffffffffffffffffffffffffffffff1673ffffffffffffffffffffffffffffffffffffffff16815260200190815260200160002060006101000a81548160ff0219169083151502179055508073ffffffffffffffffffffffffffffffffffffffff167f44e86fc11e749e6a603a3b9b39171b9dbd0af6e3d85768a6ba1acc5e2fe75ae660405160405180910390a250565b600060026000600360009054906101000a900463ffffffff1663ffffffff16815260200190815260200160002054905090565b60026020528060005260406000206000915090505481565b601e81565b6008544210610c3c576040517f08c379a0000000000000000000000000000000000000000000000000000000008152600401610c3390612355565b60405180910390fd5b600754861115610c81576040517f08c379a0000000000000000000000000000000000000000000000000000000008152600401610c78906123c1565b60405180910390fd5b610c948560001b8560001b858585611531565b6001600b600088815260200190815260200160002054610cb491906123e1565b600b6000888152602001908152602001600020819055507f7879f53e024d5ec462086a90244b25610c76aed03bfc60c091dfa1b51ec7b2f8868660001b604051610cff929190612415565b60405180910390a1505050505050565b6000808203610d43577f2fe54c60d3acabf3343a35b6eba15db4821b340f76e741e2249685ed4899af6c60001b90506113a9565b60018203610d76577f256a6135777eee2fd26f54b8b7037a25439d5235caee224154186d2b8a52e31d60001b90506113a9565b60028203610da9577f1151949895e82ab19924de92c40a3d6f7bcb60d92b00504b8199613683f0c20060001b90506113a9565b60038203610ddc577f20121ee811489ff8d61f09fb89e313f14959a0f28bb428a20dba6b0b068b3bdb60001b90506113a9565b60048203610e0f577f0a89ca6ffa14cc462cfedb842c30ed221a50a3d6bf022a6a57dc82ab24c157c960001b90506113a9565b60058203610e42577f24ca05c2b5cd42e890d6be94c68d0689f4f21c9cec9c0f13fe41d566dfb5495960001b90506113a9565b60068203610e75577f1ccb97c932565a92c60156bdba2d08f3bf1377464e025cee765679e604a7315c60001b90506113a9565b60078203610ea8577f19156fbd7d1a8bf5cba8909367de1b624534ebab4f0f79e003bccdd1b182bdb460001b90506113a9565b60088203610edb577f261af8c1f0912e465744641409f622d466c3920ac6e5ff37e36604cb11dfff8060001b90506113a9565b60098203610f0d577e58459724ff6ca5a1652fcbc3e82b93895cf08e975b19beab3f54c217d1c00760001b90506113a9565b600a8203610f40577f1f04ef20dee48d39984d8eabe768a70eafa6310ad20849d4573c3c40c2ad1e3060001b90506113a9565b600b8203610f73577f1bea3dec5dab51567ce7e200a30f7ba6d4276aeaa53e2686f962a46c66d511e560001b90506113a9565b600c8203610fa6577f0ee0f941e2da4b9e31c3ca97a40d8fa9ce68d97c084177071b3cb46cd3372f0f60001b90506113a9565b600d8203610fd9577f1ca9503e8935884501bbaf20be14eb4c46b89772c97b96e3b2ebf3a36a948bbd60001b90506113a9565b600e820361100c577f133a80e30697cd55d8f7d4b0965b7be24057ba5dc3da898ee2187232446cb10860001b90506113a9565b600f820361103f577f13e6d8fc88839ed76e182c2a779af5b2c0da9dd18c90427a644f7e148a6253b660001b90506113a9565b60108203611072577f1eb16b057a477f4bc8f572ea6bee39561098f78f15bfb3699dcbb7bd8db6185460001b90506113a9565b601182036110a5577f0da2cb16a1ceaabf1c16b838f7a9e3f2a3a3088d9e0a6debaa748114620696ea60001b90506113a9565b601282036110d8577f24a3b3d822420b14b5d8cb6c28a574f01e98ea9e940551d2ebd75cee12649f9d60001b90506113a9565b6013820361110b577f198622acbd783d1b0d9064105b1fc8e4d8889de95c4c519b3f635809fe6afc0560001b90506113a9565b6014820361113e577f29d7ed391256ccc3ea596c86e933b89ff339d25ea8ddced975ae2fe30b5296d460001b90506113a9565b60158203611171577f19be59f2f0413ce78c0c3703a3a5451b1d7f39629fa33abd11548a76065b296760001b90506113a9565b601682036111a4577f1ff3f61797e538b70e619310d33f2a063e7eb59104e112e95738da1254dc345360001b90506113a9565b601782036111d7577f10c16ae9959cf8358980d9dd9616e48228737310a10e2b6b731c1a548f036c4860001b90506113a9565b6018820361120a577f0ba433a63174a90ac20992e75e3095496812b652685b5e1a2eae0b1bf4e8fcd160001b90506113a9565b6019820361123d577f019ddb9df2bc98d987d0dfeca9d2b643deafab8f7036562e627c3667266a044c60001b90506113a9565b601a8203611270577f2d3c88b23175c5a5565db928414c66d1912b11acf974b2e644caaac04739ce9960001b90506113a9565b601b82036112a3577f2eab55f6ae4e66e32c5189eed5c470840863445760f5ed7e7b69b2a62600f35460001b90506113a9565b601c82036112d5577e2df37a2642621802383cf952bf4dd1f32e05433beeb1fd41031fb7eace979d60001b90506113a9565b601d8203611308577f104aeb41435db66c3e62feccc1d6f5d98d0a0ed75d1374db457cf462e3a1f42760001b90506113a9565b601e820361133b577f1f3c6fd858e9a7d4b0d1f38e256a09d81d5a5e3c963987e2d4b814cfab7c6ebb60001b90506113a9565b601f820361136e577f2c7a07d20dff79d01fecedc1134284a8d08436606c93693b67e333f671bf69cc60001b90506113a9565b6040517f08c379a00000000000000000000000000000000000000000000000000000000081526004016113a09061248a565b60405180910390fd5b919050565b7f2fe54c60d3acabf3343a35b6eba15db4821b340f76e741e2249685ed4899af6c81565b7f000000000000000000000000000000000000000000000000000000000000000081565b60016020528060005260406000206000915090505481565b60004260085461141e91906124aa565b905090565b60096020528060005260406000206000915054906101000a900460ff1681565b600360049054906101000a900463ffffffff1681565b6005600082815260200190815260200160002060009054906101000a900460ff16156114ba576040517f08c379a00000000000000000000000000000000000000000000000000000000081526004016114b190612550565b60405180910390fd5b60016005600083815260200190815260200160002060006101000a81548160ff02191690831515021790555060006114f182611706565b9050817f401999886e5f90a91b92a0bfb7e2d48f714651a4d1c929bb3a753525ba066b918242604051611525929190612570565b60405180910390a25050565b6004600086815260200190815260200160002060009054906101000a900460ff1615611592576040517f08c379a0000000000000000000000000000000000000000000000000000000008152600401611589906125e5565b60405180910390fd5b61159b846108d7565b6115da576040517f08c379a00000000000000000000000000000000000000000000000000000000081526004016115d190612651565b60405180910390fd5b7f000000000000000000000000000000000000000000000000000000000000000073ffffffffffffffffffffffffffffffffffffffff1663f5c9d69e84848460405180604001604052808b60001c81526020018a60001c8152506040518563ffffffff1660e01b8152600401611653949392919061281a565b602060405180830381865afa158015611670573d6000803e3d6000fd5b505050506040513d601f19601f82011682018060405250810190611694919061288d565b6116d3576040517f08c379a00000000000000000000000000000000000000000000000000000000081526004016116ca90612906565b60405180910390fd5b60016004600087815260200190815260200160002060006101000a81548160ff0219169083151502179055505050505050565b600080600360049054906101000a900463ffffffff16905060008054906101000a900463ffffffff16600261173b9190612a59565b63ffffffff168163ffffffff1603611788576040517f08c379a000000000000000000000000000000000000000000000000000000000815260040161177f90612afa565b60405180910390fd5b6000819050600084905060008060005b60008054906101000a900463ffffffff1663ffffffff168163ffffffff1610156118615760006002866117cb9190612b1a565b63ffffffff160361180d578392506117e88163ffffffff16610d0f565b915083600160008363ffffffff1681526020019081526020016000208190555061182d565b600160008263ffffffff1681526020019081526020016000205492508391505b61183d8360001c8360001c61067c565b935060028561184c9190612b4b565b9450808061185990612b7c565b915050611798565b506000601e6001600360009054906101000a900463ffffffff166118859190612ba8565b61188f9190612b1a565b905080600360006101000a81548163ffffffff021916908363ffffffff16021790555083600260008363ffffffff168152602001908152602001600020819055506001866118dd9190612ba8565b600360046101000a81548163ffffffff021916908363ffffffff160217905550859650505050505050919050565b6000604051905090565b600080fd5b6000819050919050565b61192d8161191a565b811461193857600080fd5b50565b60008135905061194a81611924565b92915050565b6000806040838503121561196757611966611915565b5b60006119758582860161193b565b92505060206119868582860161193b565b9150509250929050565b6000819050919050565b6119a381611990565b81146119ae57600080fd5b50565b6000813590506119c08161199a565b92915050565b6000602082840312156119dc576119db611915565b5b60006119ea848285016119b1565b91505092915050565b60008115159050919050565b611a08816119f3565b82525050565b6000602082019050611a2360008301846119ff565b92915050565b600073ffffffffffffffffffffffffffffffffffffffff82169050919050565b6000819050919050565b6000611a6e611a69611a6484611a29565b611a49565b611a29565b9050919050565b6000611a8082611a53565b9050919050565b6000611a9282611a75565b9050919050565b611aa281611a87565b82525050565b6000602082019050611abd6000830184611a99565b92915050565b611acc8161191a565b82525050565b6000602082019050611ae76000830184611ac3565b92915050565b600063ffffffff82169050919050565b611b0681611aed565b82525050565b6000602082019050611b216000830184611afd565b92915050565b611b3081611990565b82525050565b6000602082019050611b4b6000830184611b27565b92915050565b6000611b5c82611a29565b9050919050565b611b6c81611b51565b82525050565b6000602082019050611b876000830184611b63565b92915050565b600060208284031215611ba357611ba2611915565b5b6000611bb18482850161193b565b91505092915050565b611bc381611b51565b8114611bce57600080fd5b50565b600081359050611be081611bba565b92915050565b600060208284031215611bfc57611bfb611915565b5b6000611c0a84828501611bd1565b91505092915050565b600080fd5b6000601f19601f8301169050919050565b7f4e487b7100000000000000000000000000000000000000000000000000000000600052604160045260246000fd5b611c6182611c18565b810181811067ffffffffffffffff82111715611c8057611c7f611c29565b5b80604052505050565b6000611c9361190b565b9050611c9f8282611c58565b919050565b600067ffffffffffffffff821115611cbf57611cbe611c29565b5b602082029050919050565b600080fd5b6000611ce2611cdd84611ca4565b611c89565b90508060208402830185811115611cfc57611cfb611cca565b5b835b81811015611d255780611d11888261193b565b845260208401935050602081019050611cfe565b5050509392505050565b600082601f830112611d4457611d43611c13565b5b6002611d51848285611ccf565b91505092915050565b600067ffffffffffffffff821115611d7557611d74611c29565b5b602082029050919050565b6000611d93611d8e84611d5a565b611c89565b90508060408402830185811115611dad57611dac611cca565b5b835b81811015611dd65780611dc28882611d2f565b845260208401935050604081019050611daf565b5050509392505050565b600082601f830112611df557611df4611c13565b5b6002611e02848285611d80565b91505092915050565b6000806000806000806101608789031215611e2957611e28611915565b5b6000611e3789828a0161193b565b9650506020611e4889828a0161193b565b9550506040611e5989828a0161193b565b9450506060611e6a89828a01611d2f565b93505060a0611e7b89828a01611de0565b925050610120611e8d89828a01611d2f565b9150509295509295509295565b6000611ea582611a75565b9050919050565b611eb581611e9a565b82525050565b6000602082019050611ed06000830184611eac565b92915050565b600082825260208201905092915050565b7f4f6e6c792076616c696461746f722063616e20636f6d6d697421000000000000600082015250565b6000611f1d601a83611ed6565b9150611f2882611ee7565b602082019050919050565b60006020820190508181036000830152611f4c81611f10565b9050919050565b7f546869732049442043617264206e756d62657220697320616c7265616479207560008201527f7365642100000000000000000000000000000000000000000000000000000000602082015250565b6000611faf602483611ed6565b9150611fba82611f53565b604082019050919050565b60006020820190508181036000830152611fde81611fa2565b9050919050565b7f5f6c6566742073686f756c6420626520696e7369646520746865206669656c64600082015250565b600061201b602083611ed6565b915061202682611fe5565b602082019050919050565b6000602082019050818103600083015261204a8161200e565b9050919050565b7f5f72696768742073686f756c6420626520696e7369646520746865206669656c60008201527f6400000000000000000000000000000000000000000000000000000000000000602082015250565b60006120ad602183611ed6565b91506120b882612051565b604082019050919050565b600060208201905081810360008301526120dc816120a0565b9050919050565b6000819050919050565b60006121086121036120fe846120e3565b611a49565b61191a565b9050919050565b612118816120ed565b82525050565b60006060820190506121336000830186611ac3565b6121406020830185611ac3565b61214d604083018461210f565b949350505050565b60008151905061216481611924565b92915050565b6000806040838503121561218157612180611915565b5b600061218f85828601612155565b92505060206121a085828601612155565b9150509250929050565b7f4e487b7100000000000000000000000000000000000000000000000000000000600052601260045260246000fd5b7f4e487b7100000000000000000000000000000000000000000000000000000000600052601160045260246000fd5b600061221382611aed565b915060008203612226576122256121d9565b5b600182039050919050565b7f4f6e6c79206f776e65722063616e206164642076616c696461746f7221000000600082015250565b6000612267601d83611ed6565b915061227282612231565b602082019050919050565b600060208201905081810360008301526122968161225a565b9050919050565b7f56616c696461746f7220616c7265616479207265676973746572656421000000600082015250565b60006122d3601d83611ed6565b91506122de8261229d565b602082019050919050565b60006020820190508181036000830152612302816122c6565b9050919050565b7f566f74696e672068617320656e64656421000000000000000000000000000000600082015250565b600061233f601183611ed6565b915061234a82612309565b602082019050919050565b6000602082019050818103600083015261236e81612332565b9050919050565b7f496e76616c6964206f7074696f6e210000000000000000000000000000000000600082015250565b60006123ab600f83611ed6565b91506123b682612375565b602082019050919050565b600060208201905081810360008301526123da8161239e565b9050919050565b60006123ec8261191a565b91506123f78361191a565b925082820190508082111561240f5761240e6121d9565b5b92915050565b600060408201905061242a6000830185611ac3565b6124376020830184611b27565b9392505050565b7f496e646578206f7574206f6620626f756e647300000000000000000000000000600082015250565b6000612474601383611ed6565b915061247f8261243e565b602082019050919050565b600060208201905081810360008301526124a381612467565b9050919050565b60006124b58261191a565b91506124c08361191a565b92508282039050818111156124d8576124d76121d9565b5b92915050565b7f54686520636f6d6d69746d656e7420686173206265656e207375626d6974746560008201527f6400000000000000000000000000000000000000000000000000000000000000602082015250565b600061253a602183611ed6565b9150612545826124de565b604082019050919050565b600060208201905081810360008301526125698161252d565b9050919050565b60006040820190506125856000830185611afd565b6125926020830184611ac3565b9392505050565b7f546865206e756c6c696669657220686173206265656e207375626d6974746564600082015250565b60006125cf602083611ed6565b91506125da82612599565b602082019050919050565b600060208201905081810360008301526125fe816125c2565b9050919050565b7f43616e6e6f742066696e6420796f7572206d65726b6c6520726f6f7400000000600082015250565b600061263b601c83611ed6565b915061264682612605565b602082019050919050565b6000602082019050818103600083015261266a8161262e565b9050919050565b600060029050919050565b600081905092915050565b6000819050919050565b61269a8161191a565b82525050565b60006126ac8383612691565b60208301905092915050565b6000602082019050919050565b6126ce81612671565b6126d8818461267c565b92506126e382612687565b8060005b838110156127145781516126fb87826126a0565b9650612706836126b8565b9250506001810190506126e7565b505050505050565b600060029050919050565b600081905092915050565b6000819050919050565b600081905092915050565b61275081612671565b61275a818461273c565b925061276582612687565b8060005b8381101561279657815161277d87826126a0565b9650612788836126b8565b925050600181019050612769565b505050505050565b60006127aa8383612747565b60408301905092915050565b6000602082019050919050565b6127cc8161271c565b6127d68184612727565b92506127e182612732565b8060005b838110156128125781516127f9878261279e565b9650612804836127b6565b9250506001810190506127e5565b505050505050565b60006101408201905061283060008301876126c5565b61283d60408301866127c3565b61284a60c08301856126c5565b6128586101008301846126c5565b95945050505050565b61286a816119f3565b811461287557600080fd5b50565b60008151905061288781612861565b92915050565b6000602082840312156128a3576128a2611915565b5b60006128b184828501612878565b91505092915050565b7f496e76616c69642070726f6f6600000000000000000000000000000000000000600082015250565b60006128f0600d83611ed6565b91506128fb826128ba565b602082019050919050565b6000602082019050818103600083015261291f816128e3565b9050919050565b60008160011c9050919050565b6000808291508390505b600185111561297d57808604811115612959576129586121d9565b5b60018516156129685780820291505b808102905061297685612926565b945061293d565b94509492505050565b6000826129965760019050612a52565b816129a45760009050612a52565b81600181146129ba57600281146129c4576129f3565b6001915050612a52565b60ff8411156129d6576129d56121d9565b5b8360020a9150848211156129ed576129ec6121d9565b5b50612a52565b5060208310610133831016604e8410600b8410161715612a285782820a905083811115612a2357612a226121d9565b5b612a52565b612a358484846001612933565b92509050818404811115612a4c57612a4b6121d9565b5b81810290505b9392505050565b6000612a6482611aed565b9150612a6f83611aed565b9250612a8063ffffffff8484612986565b905092915050565b7f4d65726b6c6520747265652069732066756c6c2e204e6f206d6f7265206c656160008201527f7665732063616e20626520616464656400000000000000000000000000000000602082015250565b6000612ae4603083611ed6565b9150612aef82612a88565b604082019050919050565b60006020820190508181036000830152612b1381612ad7565b9050919050565b6000612b2582611aed565b9150612b3083611aed565b925082612b4057612b3f6121aa565b5b828206905092915050565b6000612b5682611aed565b9150612b6183611aed565b925082612b7157612b706121aa565b5b828204905092915050565b6000612b8782611aed565b915063ffffffff8203612b9d57612b9c6121d9565b5b600182019050919050565b6000612bb382611aed565b9150612bbe83611aed565b9250828201905063ffffffff811115612bda57612bd96121d9565b5b9291505056fea2646970667358221220ce5ed0118b0a583b963399d369c7b4e72abbef32490705af72d9a543cf0d654d64736f6c63430008110033",
  "linkReferences": {},
  "deployedLinkReferences": {}
}